{
  "_format": "hh-sol-artifact-1",
  "contractName": "Fundraiser",
  "sourceName": "contracts/Crowfunding.sol",
  "abi": [
    {
      "inputs": [
        {
          "internalType": "uint256",
          "name": "_targetAmount",
          "type": "uint256"
        }
      ],
      "stateMutability": "nonpayable",
      "type": "constructor"
    },
    {
      "anonymous": false,
      "inputs": [],
      "name": "TargetAchieved",
      "type": "event"
    },
    {
      "inputs": [],
      "name": "collectFunds",
      "outputs": [],
      "stateMutability": "nonpayable",
      "type": "function"
    },
    {
      "inputs": [
        {
          "internalType": "uint256",
          "name": "_donationAmount",
          "type": "uint256"
        }
      ],
      "name": "donate",
      "outputs": [],
      "stateMutability": "payable",
      "type": "function"
    },
    {
      "inputs": [
        {
          "internalType": "address",
          "name": "",
          "type": "address"
        }
      ],
      "name": "donors",
      "outputs": [
        {
          "internalType": "uint256",
          "name": "",
          "type": "uint256"
        }
      ],
      "stateMutability": "view",
      "type": "function"
    },
    {
      "inputs": [],
      "name": "organizer",
      "outputs": [
        {
          "internalType": "address",
          "name": "",
          "type": "address"
        }
      ],
      "stateMutability": "view",
      "type": "function"
    },
    {
      "inputs": [],
      "name": "targetAmount",
      "outputs": [
        {
          "internalType": "uint256",
          "name": "",
          "type": "uint256"
        }
      ],
      "stateMutability": "view",
      "type": "function"
    },
    {
      "inputs": [],
      "name": "totalContributions",
      "outputs": [
        {
          "internalType": "uint256",
          "name": "",
          "type": "uint256"
        }
      ],
      "stateMutability": "view",
      "type": "function"
    },
    {
      "stateMutability": "payable",
      "type": "receive"
    }
  ],
  "bytecode": "0x6080604052348015600f57600080fd5b506040516109523803806109528339818101604052810190602f919060b1565b336000806101000a81548173ffffffffffffffffffffffffffffffffffffffff021916908373ffffffffffffffffffffffffffffffffffffffff160217905550806001819055505060d9565b600080fd5b6000819050919050565b6091816080565b8114609b57600080fd5b50565b60008151905060ab81608a565b92915050565b60006020828403121560c45760c3607b565b5b600060d084828501609e565b91505092915050565b61086a806100e86000396000f3fe6080604052600436106100595760003560e01c806337c089231461006e5780635b9806281461009957806361203265146100b0578063953b8fb8146100db578063ca0cdea814610106578063f14faf6f1461014357610069565b36610069576100673461015f565b005b600080fd5b34801561007a57600080fd5b506100836102b9565b6040516100909190610462565b60405180910390f35b3480156100a557600080fd5b506100ae6102bf565b005b3480156100bc57600080fd5b506100c5610407565b6040516100d291906104be565b60405180910390f35b3480156100e757600080fd5b506100f061042b565b6040516100fd9190610462565b60405180910390f35b34801561011257600080fd5b5061012d6004803603810190610128919061050a565b610431565b60405161013a9190610462565b60405180910390f35b61015d60048036038101906101589190610563565b61015f565b005b600154600254106101a5576040517f08c379a000000000000000000000000000000000000000000000000000000000815260040161019c906105ed565b60405180910390fd5b600081116101e8576040517f08c379a00000000000000000000000000000000000000000000000000000000081526004016101df9061067f565b60405180910390fd5b60006002546001546101fa91906106ce565b905060008290508181111561020d578190505b80600360003373ffffffffffffffffffffffffffffffffffffffff1673ffffffffffffffffffffffffffffffffffffffff168152602001908152602001600020600082825461025c9190610702565b9250508190555080600260008282546102759190610702565b92505081905550600154600254106102b4577f6bcda1b67f4ac94b0f3f6ef203b46fd8886980058d04deef6361b3b81e1b1cbb60405160405180910390a15b505050565b60025481565b60008054906101000a900473ffffffffffffffffffffffffffffffffffffffff1673ffffffffffffffffffffffffffffffffffffffff163373ffffffffffffffffffffffffffffffffffffffff161461034d576040517f08c379a0000000000000000000000000000000000000000000000000000000008152600401610344906107a8565b60405180910390fd5b6001546002541015610394576040517f08c379a000000000000000000000000000000000000000000000000000000000815260040161038b90610814565b60405180910390fd5b60008054906101000a900473ffffffffffffffffffffffffffffffffffffffff1673ffffffffffffffffffffffffffffffffffffffff166108fc6002549081150290604051600060405180830381858888f193505050501580156103fc573d6000803e3d6000fd5b506000600281905550565b60008054906101000a900473ffffffffffffffffffffffffffffffffffffffff1681565b60015481565b60036020528060005260406000206000915090505481565b6000819050919050565b61045c81610449565b82525050565b60006020820190506104776000830184610453565b92915050565b600073ffffffffffffffffffffffffffffffffffffffff82169050919050565b60006104a88261047d565b9050919050565b6104b88161049d565b82525050565b60006020820190506104d360008301846104af565b92915050565b600080fd5b6104e78161049d565b81146104f257600080fd5b50565b600081359050610504816104de565b92915050565b6000602082840312156105205761051f6104d9565b5b600061052e848285016104f5565b91505092915050565b61054081610449565b811461054b57600080fd5b50565b60008135905061055d81610537565b92915050565b600060208284031215610579576105786104d9565b5b60006105878482850161054e565b91505092915050565b600082825260208201905092915050565b7f54617267657420616c7265616479206163686965766564000000000000000000600082015250565b60006105d7601783610590565b91506105e2826105a1565b602082019050919050565b60006020820190508181036000830152610606816105ca565b9050919050565b7f446f6e6174696f6e20616d6f756e74206d75737420626520677265617465722060008201527f7468616e20300000000000000000000000000000000000000000000000000000602082015250565b6000610669602683610590565b91506106748261060d565b604082019050919050565b600060208201905081810360008301526106988161065c565b9050919050565b7f4e487b7100000000000000000000000000000000000000000000000000000000600052601160045260246000fd5b60006106d982610449565b91506106e483610449565b92508282039050818111156106fc576106fb61069f565b5b92915050565b600061070d82610449565b915061071883610449565b92508282019050808211156107305761072f61069f565b5b92915050565b7f4f6e6c7920746865206f7267616e697a65722063616e20636f6c6c656374206660008201527f756e647300000000000000000000000000000000000000000000000000000000602082015250565b6000610792602483610590565b915061079d82610736565b604082019050919050565b600060208201905081810360008301526107c181610785565b9050919050565b7f546172676574206e6f7420616368696576656400000000000000000000000000600082015250565b60006107fe601383610590565b9150610809826107c8565b602082019050919050565b6000602082019050818103600083015261082d816107f1565b905091905056fea2646970667358221220c2ee64ddd89897f22b9283b8061ac61205c54441347b75f482d7bab61242530764736f6c634300081b0033",
  "linkReferences": {},
  "deployedLinkReferences": {}
}